{
  "abi": [
    {
      "anonymous": false,
      "inputs": [
        {
          "indexed": true,
          "internalType": "uint256",
          "name": "videoId",
          "type": "uint256"
        },
        {
          "indexed": false,
          "internalType": "address",
          "name": "by",
          "type": "address"
        },
        {
          "indexed": false,
          "internalType": "bool",
          "name": "liked",
          "type": "bool"
        }
      ],
      "name": "VideoLikedStatusChanged",
      "type": "event"
    },
    {
      "anonymous": false,
      "inputs": [
        {
          "indexed": false,
          "internalType": "uint256",
          "name": "id",
          "type": "uint256"
        },
        {
          "indexed": false,
          "internalType": "string",
          "name": "hash",
          "type": "string"
        },
        {
          "indexed": false,
          "internalType": "string",
          "name": "title",
          "type": "string"
        },
        {
          "indexed": false,
          "internalType": "address",
          "name": "author",
          "type": "address"
        }
      ],
      "name": "VideoUploaded",
      "type": "event"
    },
    {
      "inputs": [
        {
          "internalType": "uint256",
          "name": "_videoId",
          "type": "uint256"
        }
      ],
      "name": "addLike",
      "outputs": [],
      "stateMutability": "nonpayable",
      "type": "function"
    },
    {
      "inputs": [
        {
          "internalType": "uint256",
          "name": "_videoId",
          "type": "uint256"
        }
      ],
      "name": "removeLike",
      "outputs": [],
      "stateMutability": "nonpayable",
      "type": "function"
    },
    {
      "inputs": [
        {
          "internalType": "string",
          "name": "_videoHash",
          "type": "string"
        },
        {
          "internalType": "string",
          "name": "_title",
          "type": "string"
        }
      ],
      "name": "uploadVideo",
      "outputs": [],
      "stateMutability": "nonpayable",
      "type": "function"
    },
    {
      "inputs": [],
      "name": "videoCount",
      "outputs": [
        {
          "internalType": "uint256",
          "name": "",
          "type": "uint256"
        }
      ],
      "stateMutability": "view",
      "type": "function"
    },
    {
      "inputs": [
        {
          "internalType": "uint256",
          "name": "",
          "type": "uint256"
        },
        {
          "internalType": "address",
          "name": "",
          "type": "address"
        }
      ],
      "name": "videoLikes",
      "outputs": [
        {
          "internalType": "bool",
          "name": "",
          "type": "bool"
        }
      ],
      "stateMutability": "view",
      "type": "function"
    },
    {
      "inputs": [
        {
          "internalType": "uint256",
          "name": "",
          "type": "uint256"
        }
      ],
      "name": "videos",
      "outputs": [
        {
          "internalType": "uint256",
          "name": "id",
          "type": "uint256"
        },
        {
          "internalType": "string",
          "name": "hash",
          "type": "string"
        },
        {
          "internalType": "string",
          "name": "title",
          "type": "string"
        },
        {
          "internalType": "uint256",
          "name": "likes",
          "type": "uint256"
        },
        {
          "internalType": "address",
          "name": "author",
          "type": "address"
        }
      ],
      "stateMutability": "view",
      "type": "function"
    }
  ],
  "bytecode": "60806040526000805534801561001457600080fd5b506109e8806100246000396000f3fe608060405234801561001057600080fd5b50600436106100625760003560e01c8063378a35cd1461006757806361746a5c1461007c5780638a5447c5146100bf578063a7656e33146100d2578063c61b5f4c146100e5578063e6821bf5146100fc575b600080fd5b61007a6100753660046105e7565b610120565b005b6100aa61008a366004610600565b600260209081526000928352604080842090915290825290205460ff1681565b60405190151581526020015b60405180910390f35b61007a6100cd3660046106df565b610222565b61007a6100e03660046105e7565b6103b4565b6100ee60005481565b6040519081526020016100b6565b61010f61010a3660046105e7565b61049f565b6040516100b6959493929190610790565b600081815260026020908152604080832033845290915290205460ff16156101a05760405162461bcd60e51b815260206004820152602860248201527f44566964656f3a20757365722068617320616c7265616479206c696b65642074604482015267686520766964656f60c01b60648201526084015b60405180910390fd5b60008181526002602090815260408083203384528252808320805460ff1916600190811790915584845290915281206003018054916101de836107f4565b9091555050604080513381526001602082015282917f80c707be79d70f5ded8e58e6e4ecd8dbbee5df923f26e92c3d6711aac15d629491015b60405180910390a250565b60008251116102735760405162461bcd60e51b815260206004820152601860248201527f44566964656f3a20656d70747920766964656f206861736800000000000000006044820152606401610197565b60008151116102c45760405162461bcd60e51b815260206004820152601960248201527f44566964656f3a20656d70747920766964656f207469746c65000000000000006044820152606401610197565b6000805490806102d3836107f4565b90915550506040805160a081018252600080548083526020808401878152848601879052606085018490523360808601529183526001908190529390912082518155905191929091908201906103299082610896565b506040820151600282019061033e9082610896565b5060608201516003820155608090910151600490910180546001600160a01b0319166001600160a01b039092169190911790556000546040517f2c44b862f4b4e08a26a765f9499900759a9ec95360a6f174d53163bd5d367f67916103a891859085903390610956565b60405180910390a15050565b600081815260026020908152604080832033845290915290205460ff166104285760405162461bcd60e51b815260206004820152602260248201527f44566964656f3a2075736572206e65766572206c696b65642074686520766964604482015261656f60f01b6064820152608401610197565b60008181526002602090815260408083203384528252808320805460ff19169055838352600190915281206003018054916104628361099b565b9091555050604080513381526000602082015282917f80c707be79d70f5ded8e58e6e4ecd8dbbee5df923f26e92c3d6711aac15d62949101610217565b6001602081905260009182526040909120805491810180546104c09061080d565b80601f01602080910402602001604051908101604052809291908181526020018280546104ec9061080d565b80156105395780601f1061050e57610100808354040283529160200191610539565b820191906000526020600020905b81548152906001019060200180831161051c57829003601f168201915b50505050509080600201805461054e9061080d565b80601f016020809104026020016040519081016040528092919081815260200182805461057a9061080d565b80156105c75780601f1061059c576101008083540402835291602001916105c7565b820191906000526020600020905b8154815290600101906020018083116105aa57829003601f168201915b5050505060038301546004909301549192916001600160a01b0316905085565b6000602082840312156105f957600080fd5b5035919050565b6000806040838503121561061357600080fd5b8235915060208301356001600160a01b038116811461063157600080fd5b809150509250929050565b634e487b7160e01b600052604160045260246000fd5b600082601f83011261066357600080fd5b813567ffffffffffffffff8082111561067e5761067e61063c565b604051601f8301601f19908116603f011681019082821181831017156106a6576106a661063c565b816040528381528660208588010111156106bf57600080fd5b836020870160208301376000602085830101528094505050505092915050565b600080604083850312156106f257600080fd5b823567ffffffffffffffff8082111561070a57600080fd5b61071686838701610652565b9350602085013591508082111561072c57600080fd5b5061073985828601610652565b9150509250929050565b6000815180845260005b818110156107695760208185018101518683018201520161074d565b8181111561077b576000602083870101525b50601f01601f19169290920160200192915050565b85815260a0602082015260006107a960a0830187610743565b82810360408401526107bb8187610743565b606084019590955250506001600160a01b03919091166080909101529392505050565b634e487b7160e01b600052601160045260246000fd5b600060018201610806576108066107de565b5060010190565b600181811c9082168061082157607f821691505b60208210810361084157634e487b7160e01b600052602260045260246000fd5b50919050565b601f82111561089157600081815260208120601f850160051c8101602086101561086e5750805b601f850160051c820191505b8181101561088d5782815560010161087a565b5050505b505050565b815167ffffffffffffffff8111156108b0576108b061063c565b6108c4816108be845461080d565b84610847565b602080601f8311600181146108f957600084156108e15750858301515b600019600386901b1c1916600185901b17855561088d565b600085815260208120601f198616915b8281101561092857888601518255948401946001909101908401610909565b50858210156109465787850151600019600388901b60f8161c191681555b5050505050600190811b01905550565b84815260806020820152600061096f6080830186610743565b82810360408401526109818186610743565b91505060018060a01b038316606083015295945050505050565b6000816109aa576109aa6107de565b50600019019056fea2646970667358221220f04f017b4b0d0b3f6fc8d3f2370eea1781c606e9a436239075fd855cbcad11ad64736f6c634300080f0033",
  "bytecodeSha1": "bc7bef3240538ea4f5dcb12b5cb6e7b9a91c1c4d",
  "compiler": {
    "evm_version": "istanbul",
    "optimizer": {
      "enabled": true,
      "runs": 200
    },
    "version": "0.8.15+commit.e14f2714"
  },
  "contractName": "DVideo",
  "language": "Solidity",
  "natspec": {
    "kind": "dev",
    "methods": {},
    "version": 1
  },
  "opcodes": "PUSH1 0x80 PUSH1 0x40 MSTORE CALLVALUE DUP1 ISZERO PUSH2 0x10 JUMPI PUSH1 0x0 DUP1 REVERT JUMPDEST POP PUSH1 0x4 CALLDATASIZE LT PUSH2 0x62 JUMPI PUSH1 0x0 CALLDATALOAD PUSH1 0xE0 SHR DUP1 PUSH4 0x378A35CD EQ PUSH2 0x67 JUMPI DUP1 PUSH4 0x61746A5C EQ PUSH2 0x7C JUMPI DUP1 PUSH4 0x8A5447C5 EQ PUSH2 0xBF JUMPI DUP1 PUSH4 0xA7656E33 EQ PUSH2 0xD2 JUMPI DUP1 PUSH4 0xC61B5F4C EQ PUSH2 0xE5 JUMPI DUP1 PUSH4 0xE6821BF5 EQ PUSH2 0xFC JUMPI JUMPDEST PUSH1 0x0 DUP1 REVERT JUMPDEST PUSH2 0x7A PUSH2 0x75 CALLDATASIZE PUSH1 0x4 PUSH2 0x5E7 JUMP JUMPDEST PUSH2 0x120 JUMP JUMPDEST STOP JUMPDEST PUSH2 0xAA PUSH2 0x8A CALLDATASIZE PUSH1 0x4 PUSH2 0x600 JUMP JUMPDEST PUSH1 0x2 PUSH1 0x20 SWAP1 DUP2 MSTORE PUSH1 0x0 SWAP3 DUP4 MSTORE PUSH1 0x40 DUP1 DUP5 KECCAK256 SWAP1 SWAP2 MSTORE SWAP1 DUP3 MSTORE SWAP1 KECCAK256 SLOAD PUSH1 0xFF AND DUP2 JUMP JUMPDEST PUSH1 0x40 MLOAD SWAP1 ISZERO ISZERO DUP2 MSTORE PUSH1 0x20 ADD JUMPDEST PUSH1 0x40 MLOAD DUP1 SWAP2 SUB SWAP1 RETURN JUMPDEST PUSH2 0x7A PUSH2 0xCD CALLDATASIZE PUSH1 0x4 PUSH2 0x6DF JUMP JUMPDEST PUSH2 0x222 JUMP JUMPDEST PUSH2 0x7A PUSH2 0xE0 CALLDATASIZE PUSH1 0x4 PUSH2 0x5E7 JUMP JUMPDEST PUSH2 0x3B4 JUMP JUMPDEST PUSH2 0xEE PUSH1 0x0 SLOAD DUP2 JUMP JUMPDEST PUSH1 0x40 MLOAD SWAP1 DUP2 MSTORE PUSH1 0x20 ADD PUSH2 0xB6 JUMP JUMPDEST PUSH2 0x10F PUSH2 0x10A CALLDATASIZE PUSH1 0x4 PUSH2 0x5E7 JUMP JUMPDEST PUSH2 0x49F JUMP JUMPDEST PUSH1 0x40 MLOAD PUSH2 0xB6 SWAP6 SWAP5 SWAP4 SWAP3 SWAP2 SWAP1 PUSH2 0x790 JUMP JUMPDEST PUSH1 0x0 DUP2 DUP2 MSTORE PUSH1 0x2 PUSH1 0x20 SWAP1 DUP2 MSTORE PUSH1 0x40 DUP1 DUP4 KECCAK256 CALLER DUP5 MSTORE SWAP1 SWAP2 MSTORE SWAP1 KECCAK256 SLOAD PUSH1 0xFF AND ISZERO PUSH2 0x1A0 JUMPI PUSH1 0x40 MLOAD PUSH3 0x461BCD PUSH1 0xE5 SHL DUP2 MSTORE PUSH1 0x20 PUSH1 0x4 DUP3 ADD MSTORE PUSH1 0x28 PUSH1 0x24 DUP3 ADD MSTORE PUSH32 0x44566964656F3A20757365722068617320616C7265616479206C696B65642074 PUSH1 0x44 DUP3 ADD MSTORE PUSH8 0x686520766964656F PUSH1 0xC0 SHL PUSH1 0x64 DUP3 ADD MSTORE PUSH1 0x84 ADD JUMPDEST PUSH1 0x40 MLOAD DUP1 SWAP2 SUB SWAP1 REVERT JUMPDEST PUSH1 0x0 DUP2 DUP2 MSTORE PUSH1 0x2 PUSH1 0x20 SWAP1 DUP2 MSTORE PUSH1 0x40 DUP1 DUP4 KECCAK256 CALLER DUP5 MSTORE DUP3 MSTORE DUP1 DUP4 KECCAK256 DUP1 SLOAD PUSH1 0xFF NOT AND PUSH1 0x1 SWAP1 DUP2 OR SWAP1 SWAP2 SSTORE DUP5 DUP5 MSTORE SWAP1 SWAP2 MSTORE DUP2 KECCAK256 PUSH1 0x3 ADD DUP1 SLOAD SWAP2 PUSH2 0x1DE DUP4 PUSH2 0x7F4 JUMP JUMPDEST SWAP1 SWAP2 SSTORE POP POP PUSH1 0x40 DUP1 MLOAD CALLER DUP2 MSTORE PUSH1 0x1 PUSH1 0x20 DUP3 ADD MSTORE DUP3 SWAP2 PUSH32 0x80C707BE79D70F5DED8E58E6E4ECD8DBBEE5DF923F26E92C3D6711AAC15D6294 SWAP2 ADD JUMPDEST PUSH1 0x40 MLOAD DUP1 SWAP2 SUB SWAP1 LOG2 POP JUMP JUMPDEST PUSH1 0x0 DUP3 MLOAD GT PUSH2 0x273 JUMPI PUSH1 0x40 MLOAD PUSH3 0x461BCD PUSH1 0xE5 SHL DUP2 MSTORE PUSH1 0x20 PUSH1 0x4 DUP3 ADD MSTORE PUSH1 0x18 PUSH1 0x24 DUP3 ADD MSTORE PUSH32 0x44566964656F3A20656D70747920766964656F20686173680000000000000000 PUSH1 0x44 DUP3 ADD MSTORE PUSH1 0x64 ADD PUSH2 0x197 JUMP JUMPDEST PUSH1 0x0 DUP2 MLOAD GT PUSH2 0x2C4 JUMPI PUSH1 0x40 MLOAD PUSH3 0x461BCD PUSH1 0xE5 SHL DUP2 MSTORE PUSH1 0x20 PUSH1 0x4 DUP3 ADD MSTORE PUSH1 0x19 PUSH1 0x24 DUP3 ADD MSTORE PUSH32 0x44566964656F3A20656D70747920766964656F207469746C6500000000000000 PUSH1 0x44 DUP3 ADD MSTORE PUSH1 0x64 ADD PUSH2 0x197 JUMP JUMPDEST PUSH1 0x0 DUP1 SLOAD SWAP1 DUP1 PUSH2 0x2D3 DUP4 PUSH2 0x7F4 JUMP JUMPDEST SWAP1 SWAP2 SSTORE POP POP PUSH1 0x40 DUP1 MLOAD PUSH1 0xA0 DUP2 ADD DUP3 MSTORE PUSH1 0x0 DUP1 SLOAD DUP1 DUP4 MSTORE PUSH1 0x20 DUP1 DUP5 ADD DUP8 DUP2 MSTORE DUP5 DUP7 ADD DUP8 SWAP1 MSTORE PUSH1 0x60 DUP6 ADD DUP5 SWAP1 MSTORE CALLER PUSH1 0x80 DUP7 ADD MSTORE SWAP2 DUP4 MSTORE PUSH1 0x1 SWAP1 DUP2 SWAP1 MSTORE SWAP4 SWAP1 SWAP2 KECCAK256 DUP3 MLOAD DUP2 SSTORE SWAP1 MLOAD SWAP2 SWAP3 SWAP1 SWAP2 SWAP1 DUP3 ADD SWAP1 PUSH2 0x329 SWAP1 DUP3 PUSH2 0x896 JUMP JUMPDEST POP PUSH1 0x40 DUP3 ADD MLOAD PUSH1 0x2 DUP3 ADD SWAP1 PUSH2 0x33E SWAP1 DUP3 PUSH2 0x896 JUMP JUMPDEST POP PUSH1 0x60 DUP3 ADD MLOAD PUSH1 0x3 DUP3 ADD SSTORE PUSH1 0x80 SWAP1 SWAP2 ADD MLOAD PUSH1 0x4 SWAP1 SWAP2 ADD DUP1 SLOAD PUSH1 0x1 PUSH1 0x1 PUSH1 0xA0 SHL SUB NOT AND PUSH1 0x1 PUSH1 0x1 PUSH1 0xA0 SHL SUB SWAP1 SWAP3 AND SWAP2 SWAP1 SWAP2 OR SWAP1 SSTORE PUSH1 0x0 SLOAD PUSH1 0x40 MLOAD PUSH32 0x2C44B862F4B4E08A26A765F9499900759A9EC95360A6F174D53163BD5D367F67 SWAP2 PUSH2 0x3A8 SWAP2 DUP6 SWAP1 DUP6 SWAP1 CALLER SWAP1 PUSH2 0x956 JUMP JUMPDEST PUSH1 0x40 MLOAD DUP1 SWAP2 SUB SWAP1 LOG1 POP POP JUMP JUMPDEST PUSH1 0x0 DUP2 DUP2 MSTORE PUSH1 0x2 PUSH1 0x20 SWAP1 DUP2 MSTORE PUSH1 0x40 DUP1 DUP4 KECCAK256 CALLER DUP5 MSTORE SWAP1 SWAP2 MSTORE SWAP1 KECCAK256 SLOAD PUSH1 0xFF AND PUSH2 0x428 JUMPI PUSH1 0x40 MLOAD PUSH3 0x461BCD PUSH1 0xE5 SHL DUP2 MSTORE PUSH1 0x20 PUSH1 0x4 DUP3 ADD MSTORE PUSH1 0x22 PUSH1 0x24 DUP3 ADD MSTORE PUSH32 0x44566964656F3A2075736572206E65766572206C696B65642074686520766964 PUSH1 0x44 DUP3 ADD MSTORE PUSH2 0x656F PUSH1 0xF0 SHL PUSH1 0x64 DUP3 ADD MSTORE PUSH1 0x84 ADD PUSH2 0x197 JUMP JUMPDEST PUSH1 0x0 DUP2 DUP2 MSTORE PUSH1 0x2 PUSH1 0x20 SWAP1 DUP2 MSTORE PUSH1 0x40 DUP1 DUP4 KECCAK256 CALLER DUP5 MSTORE DUP3 MSTORE DUP1 DUP4 KECCAK256 DUP1 SLOAD PUSH1 0xFF NOT AND SWAP1 SSTORE DUP4 DUP4 MSTORE PUSH1 0x1 SWAP1 SWAP2 MSTORE DUP2 KECCAK256 PUSH1 0x3 ADD DUP1 SLOAD SWAP2 PUSH2 0x462 DUP4 PUSH2 0x99B JUMP JUMPDEST SWAP1 SWAP2 SSTORE POP POP PUSH1 0x40 DUP1 MLOAD CALLER DUP2 MSTORE PUSH1 0x0 PUSH1 0x20 DUP3 ADD MSTORE DUP3 SWAP2 PUSH32 0x80C707BE79D70F5DED8E58E6E4ECD8DBBEE5DF923F26E92C3D6711AAC15D6294 SWAP2 ADD PUSH2 0x217 JUMP JUMPDEST PUSH1 0x1 PUSH1 0x20 DUP2 SWAP1 MSTORE PUSH1 0x0 SWAP2 DUP3 MSTORE PUSH1 0x40 SWAP1 SWAP2 KECCAK256 DUP1 SLOAD SWAP2 DUP2 ADD DUP1 SLOAD PUSH2 0x4C0 SWAP1 PUSH2 0x80D JUMP JUMPDEST DUP1 PUSH1 0x1F ADD PUSH1 0x20 DUP1 SWAP2 DIV MUL PUSH1 0x20 ADD PUSH1 0x40 MLOAD SWAP1 DUP2 ADD PUSH1 0x40 MSTORE DUP1 SWAP3 SWAP2 SWAP1 DUP2 DUP2 MSTORE PUSH1 0x20 ADD DUP3 DUP1 SLOAD PUSH2 0x4EC SWAP1 PUSH2 0x80D JUMP JUMPDEST DUP1 ISZERO PUSH2 0x539 JUMPI DUP1 PUSH1 0x1F LT PUSH2 0x50E JUMPI PUSH2 0x100 DUP1 DUP4 SLOAD DIV MUL DUP4 MSTORE SWAP2 PUSH1 0x20 ADD SWAP2 PUSH2 0x539 JUMP JUMPDEST DUP3 ADD SWAP2 SWAP1 PUSH1 0x0 MSTORE PUSH1 0x20 PUSH1 0x0 KECCAK256 SWAP1 JUMPDEST DUP2 SLOAD DUP2 MSTORE SWAP1 PUSH1 0x1 ADD SWAP1 PUSH1 0x20 ADD DUP1 DUP4 GT PUSH2 0x51C JUMPI DUP3 SWAP1 SUB PUSH1 0x1F AND DUP3 ADD SWAP2 JUMPDEST POP POP POP POP POP SWAP1 DUP1 PUSH1 0x2 ADD DUP1 SLOAD PUSH2 0x54E SWAP1 PUSH2 0x80D JUMP JUMPDEST DUP1 PUSH1 0x1F ADD PUSH1 0x20 DUP1 SWAP2 DIV MUL PUSH1 0x20 ADD PUSH1 0x40 MLOAD SWAP1 DUP2 ADD PUSH1 0x40 MSTORE DUP1 SWAP3 SWAP2 SWAP1 DUP2 DUP2 MSTORE PUSH1 0x20 ADD DUP3 DUP1 SLOAD PUSH2 0x57A SWAP1 PUSH2 0x80D JUMP JUMPDEST DUP1 ISZERO PUSH2 0x5C7 JUMPI DUP1 PUSH1 0x1F LT PUSH2 0x59C JUMPI PUSH2 0x100 DUP1 DUP4 SLOAD DIV MUL DUP4 MSTORE SWAP2 PUSH1 0x20 ADD SWAP2 PUSH2 0x5C7 JUMP JUMPDEST DUP3 ADD SWAP2 SWAP1 PUSH1 0x0 MSTORE PUSH1 0x20 PUSH1 0x0 KECCAK256 SWAP1 JUMPDEST DUP2 SLOAD DUP2 MSTORE SWAP1 PUSH1 0x1 ADD SWAP1 PUSH1 0x20 ADD DUP1 DUP4 GT PUSH2 0x5AA JUMPI DUP3 SWAP1 SUB PUSH1 0x1F AND DUP3 ADD SWAP2 JUMPDEST POP POP POP POP PUSH1 0x3 DUP4 ADD SLOAD PUSH1 0x4 SWAP1 SWAP4 ADD SLOAD SWAP2 SWAP3 SWAP2 PUSH1 0x1 PUSH1 0x1 PUSH1 0xA0 SHL SUB AND SWAP1 POP DUP6 JUMP JUMPDEST PUSH1 0x0 PUSH1 0x20 DUP3 DUP5 SUB SLT ISZERO PUSH2 0x5F9 JUMPI PUSH1 0x0 DUP1 REVERT JUMPDEST POP CALLDATALOAD SWAP2 SWAP1 POP JUMP JUMPDEST PUSH1 0x0 DUP1 PUSH1 0x40 DUP4 DUP6 SUB SLT ISZERO PUSH2 0x613 JUMPI PUSH1 0x0 DUP1 REVERT JUMPDEST DUP3 CALLDATALOAD SWAP2 POP PUSH1 0x20 DUP4 ADD CALLDATALOAD PUSH1 0x1 PUSH1 0x1 PUSH1 0xA0 SHL SUB DUP2 AND DUP2 EQ PUSH2 0x631 JUMPI PUSH1 0x0 DUP1 REVERT JUMPDEST DUP1 SWAP2 POP POP SWAP3 POP SWAP3 SWAP1 POP JUMP JUMPDEST PUSH4 0x4E487B71 PUSH1 0xE0 SHL PUSH1 0x0 MSTORE PUSH1 0x41 PUSH1 0x4 MSTORE PUSH1 0x24 PUSH1 0x0 REVERT JUMPDEST PUSH1 0x0 DUP3 PUSH1 0x1F DUP4 ADD SLT PUSH2 0x663 JUMPI PUSH1 0x0 DUP1 REVERT JUMPDEST DUP2 CALLDATALOAD PUSH8 0xFFFFFFFFFFFFFFFF DUP1 DUP3 GT ISZERO PUSH2 0x67E JUMPI PUSH2 0x67E PUSH2 0x63C JUMP JUMPDEST PUSH1 0x40 MLOAD PUSH1 0x1F DUP4 ADD PUSH1 0x1F NOT SWAP1 DUP2 AND PUSH1 0x3F ADD AND DUP2 ADD SWAP1 DUP3 DUP3 GT DUP2 DUP4 LT OR ISZERO PUSH2 0x6A6 JUMPI PUSH2 0x6A6 PUSH2 0x63C JUMP JUMPDEST DUP2 PUSH1 0x40 MSTORE DUP4 DUP2 MSTORE DUP7 PUSH1 0x20 DUP6 DUP9 ADD ADD GT ISZERO PUSH2 0x6BF JUMPI PUSH1 0x0 DUP1 REVERT JUMPDEST DUP4 PUSH1 0x20 DUP8 ADD PUSH1 0x20 DUP4 ADD CALLDATACOPY PUSH1 0x0 PUSH1 0x20 DUP6 DUP4 ADD ADD MSTORE DUP1 SWAP5 POP POP POP POP POP SWAP3 SWAP2 POP POP JUMP JUMPDEST PUSH1 0x0 DUP1 PUSH1 0x40 DUP4 DUP6 SUB SLT ISZERO PUSH2 0x6F2 JUMPI PUSH1 0x0 DUP1 REVERT JUMPDEST DUP3 CALLDATALOAD PUSH8 0xFFFFFFFFFFFFFFFF DUP1 DUP3 GT ISZERO PUSH2 0x70A JUMPI PUSH1 0x0 DUP1 REVERT JUMPDEST PUSH2 0x716 DUP7 DUP4 DUP8 ADD PUSH2 0x652 JUMP JUMPDEST SWAP4 POP PUSH1 0x20 DUP6 ADD CALLDATALOAD SWAP2 POP DUP1 DUP3 GT ISZERO PUSH2 0x72C JUMPI PUSH1 0x0 DUP1 REVERT JUMPDEST POP PUSH2 0x739 DUP6 DUP3 DUP7 ADD PUSH2 0x652 JUMP JUMPDEST SWAP2 POP POP SWAP3 POP SWAP3 SWAP1 POP JUMP JUMPDEST PUSH1 0x0 DUP2 MLOAD DUP1 DUP5 MSTORE PUSH1 0x0 JUMPDEST DUP2 DUP2 LT ISZERO PUSH2 0x769 JUMPI PUSH1 0x20 DUP2 DUP6 ADD DUP2 ADD MLOAD DUP7 DUP4 ADD DUP3 ADD MSTORE ADD PUSH2 0x74D JUMP JUMPDEST DUP2 DUP2 GT ISZERO PUSH2 0x77B JUMPI PUSH1 0x0 PUSH1 0x20 DUP4 DUP8 ADD ADD MSTORE JUMPDEST POP PUSH1 0x1F ADD PUSH1 0x1F NOT AND SWAP3 SWAP1 SWAP3 ADD PUSH1 0x20 ADD SWAP3 SWAP2 POP POP JUMP JUMPDEST DUP6 DUP2 MSTORE PUSH1 0xA0 PUSH1 0x20 DUP3 ADD MSTORE PUSH1 0x0 PUSH2 0x7A9 PUSH1 0xA0 DUP4 ADD DUP8 PUSH2 0x743 JUMP JUMPDEST DUP3 DUP2 SUB PUSH1 0x40 DUP5 ADD MSTORE PUSH2 0x7BB DUP2 DUP8 PUSH2 0x743 JUMP JUMPDEST PUSH1 0x60 DUP5 ADD SWAP6 SWAP1 SWAP6 MSTORE POP POP PUSH1 0x1 PUSH1 0x1 PUSH1 0xA0 SHL SUB SWAP2 SWAP1 SWAP2 AND PUSH1 0x80 SWAP1 SWAP2 ADD MSTORE SWAP4 SWAP3 POP POP POP JUMP JUMPDEST PUSH4 0x4E487B71 PUSH1 0xE0 SHL PUSH1 0x0 MSTORE PUSH1 0x11 PUSH1 0x4 MSTORE PUSH1 0x24 PUSH1 0x0 REVERT JUMPDEST PUSH1 0x0 PUSH1 0x1 DUP3 ADD PUSH2 0x806 JUMPI PUSH2 0x806 PUSH2 0x7DE JUMP JUMPDEST POP PUSH1 0x1 ADD SWAP1 JUMP JUMPDEST PUSH1 0x1 DUP2 DUP2 SHR SWAP1 DUP3 AND DUP1 PUSH2 0x821 JUMPI PUSH1 0x7F DUP3 AND SWAP2 POP JUMPDEST PUSH1 0x20 DUP3 LT DUP2 SUB PUSH2 0x841 JUMPI PUSH4 0x4E487B71 PUSH1 0xE0 SHL PUSH1 0x0 MSTORE PUSH1 0x22 PUSH1 0x4 MSTORE PUSH1 0x24 PUSH1 0x0 REVERT JUMPDEST POP SWAP2 SWAP1 POP JUMP JUMPDEST PUSH1 0x1F DUP3 GT ISZERO PUSH2 0x891 JUMPI PUSH1 0x0 DUP2 DUP2 MSTORE PUSH1 0x20 DUP2 KECCAK256 PUSH1 0x1F DUP6 ADD PUSH1 0x5 SHR DUP2 ADD PUSH1 0x20 DUP7 LT ISZERO PUSH2 0x86E JUMPI POP DUP1 JUMPDEST PUSH1 0x1F DUP6 ADD PUSH1 0x5 SHR DUP3 ADD SWAP2 POP JUMPDEST DUP2 DUP2 LT ISZERO PUSH2 0x88D JUMPI DUP3 DUP2 SSTORE PUSH1 0x1 ADD PUSH2 0x87A JUMP JUMPDEST POP POP POP JUMPDEST POP POP POP JUMP JUMPDEST DUP2 MLOAD PUSH8 0xFFFFFFFFFFFFFFFF DUP2 GT ISZERO PUSH2 0x8B0 JUMPI PUSH2 0x8B0 PUSH2 0x63C JUMP JUMPDEST PUSH2 0x8C4 DUP2 PUSH2 0x8BE DUP5 SLOAD PUSH2 0x80D JUMP JUMPDEST DUP5 PUSH2 0x847 JUMP JUMPDEST PUSH1 0x20 DUP1 PUSH1 0x1F DUP4 GT PUSH1 0x1 DUP2 EQ PUSH2 0x8F9 JUMPI PUSH1 0x0 DUP5 ISZERO PUSH2 0x8E1 JUMPI POP DUP6 DUP4 ADD MLOAD JUMPDEST PUSH1 0x0 NOT PUSH1 0x3 DUP7 SWAP1 SHL SHR NOT AND PUSH1 0x1 DUP6 SWAP1 SHL OR DUP6 SSTORE PUSH2 0x88D JUMP JUMPDEST PUSH1 0x0 DUP6 DUP2 MSTORE PUSH1 0x20 DUP2 KECCAK256 PUSH1 0x1F NOT DUP7 AND SWAP2 JUMPDEST DUP3 DUP2 LT ISZERO PUSH2 0x928 JUMPI DUP9 DUP7 ADD MLOAD DUP3 SSTORE SWAP5 DUP5 ADD SWAP5 PUSH1 0x1 SWAP1 SWAP2 ADD SWAP1 DUP5 ADD PUSH2 0x909 JUMP JUMPDEST POP DUP6 DUP3 LT ISZERO PUSH2 0x946 JUMPI DUP8 DUP6 ADD MLOAD PUSH1 0x0 NOT PUSH1 0x3 DUP9 SWAP1 SHL PUSH1 0xF8 AND SHR NOT AND DUP2 SSTORE JUMPDEST POP POP POP POP POP PUSH1 0x1 SWAP1 DUP2 SHL ADD SWAP1 SSTORE POP JUMP JUMPDEST DUP5 DUP2 MSTORE PUSH1 0x80 PUSH1 0x20 DUP3 ADD MSTORE PUSH1 0x0 PUSH2 0x96F PUSH1 0x80 DUP4 ADD DUP7 PUSH2 0x743 JUMP JUMPDEST DUP3 DUP2 SUB PUSH1 0x40 DUP5 ADD MSTORE PUSH2 0x981 DUP2 DUP7 PUSH2 0x743 JUMP JUMPDEST SWAP2 POP POP PUSH1 0x1 DUP1 PUSH1 0xA0 SHL SUB DUP4 AND PUSH1 0x60 DUP4 ADD MSTORE SWAP6 SWAP5 POP POP POP POP POP JUMP JUMPDEST PUSH1 0x0 DUP2 PUSH2 0x9AA JUMPI PUSH2 0x9AA PUSH2 0x7DE JUMP JUMPDEST POP PUSH1 0x0 NOT ADD SWAP1 JUMP INVALID LOG2 PUSH5 0x6970667358 0x22 SLT KECCAK256 CREATE 0x4F ADD PUSH28 0x4B0D0B3F6FC8D3F2370EEA1781C606E9A436239075FD855CBCAD11AD PUSH5 0x736F6C6343 STOP ADDMOD 0xF STOP CALLER ",
  "sha1": "f35860614b122aaa0dd03ba1ae9822270b4a4f08",
  "source": "pragma solidity ^0.8.0;\n\ncontract DVideo {\n\n    uint public videoCount = 0;\n    mapping(uint => Video) public videos;\n    mapping(uint => mapping(address => bool)) public videoLikes;\n\n    struct Video {\n        uint id;\n        string hash;\n        string title;\n        uint likes;\n        address author;\n    }\n\n    event VideoUploaded(\n        uint id,\n        string hash,\n        string title,\n        address author\n    );\n\n    event VideoLikedStatusChanged(\n        uint indexed videoId,\n        address by,\n        bool liked\n    );\n\n    function uploadVideo(string memory _videoHash, string memory _title) public {\n        require(bytes(_videoHash).length > 0, \"DVideo: empty video hash\");\n        require(bytes(_title).length > 0, \"DVideo: empty video title\");\n\n        videoCount++;\n\n        videos[videoCount] = Video(videoCount, _videoHash, _title, 0, msg.sender);\n\n        emit VideoUploaded(videoCount, _videoHash, _title, msg.sender);\n    }\n\n    function addLike(uint _videoId) public {\n        require(!videoLikes[_videoId][msg.sender], \"DVideo: user has already liked the video\");\n\n        videoLikes[_videoId][msg.sender] = true;\n        videos[_videoId].likes++;\n\n        emit VideoLikedStatusChanged(_videoId, msg.sender, true);\n    }\n\n    function removeLike(uint _videoId) public {\n        require(videoLikes[_videoId][msg.sender], \"DVideo: user never liked the video\");\n\n        delete videoLikes[_videoId][msg.sender];\n        videos[_videoId].likes--;\n\n        emit VideoLikedStatusChanged(_videoId, msg.sender, false);\n    }\n}\n",
  "sourcePath": "contracts/DVideo.sol",
  "type": "contract"
}